:080000000002040000000000F2
:100400000F782700F07F270020A0B7000000000031
:1004100081E0A8000068EF0061E2A900E502A90000
:10042000E4E2A800E522A800E4C2A80060C2A90096
:100430006322A9006822EF00F40921001413880048
:1004400061E2A800E522A900E922A8002CA3EF00A0
:100450002AA3EF006CA3EF006AA3EF00E522A80037
:1004600024FE2F00641988002AA3EF002223EF0046
:1004700004F0290024198800044E2800041988007B
:1004800000C6B300C9E3B70010C2B300CAE3B700A7
:1004900084262000841E8800C9E3A900C863EF00F9
:1004A00024802000641E880004022000941E88001E
:1004B000C9E3A80000C4B300D5E3B70010C2B3007D
:1004C000D6E3B70084262000E41E8800D5E3A90007
:1004D000D463EF0004802700C41E880004022000BB
:0C04E000F41E8800D5E3A8000040FE00D8
:0200000401F009
:10000000CF0000FFCF0000FF070000FF820000FFCD
:10001000C10000FF5F0000FFE70000FFC30000FF1A
:00000001FF
;DSPIC33FJ256GP710A
;CRC=052F  CREATED="18-Dec-18 17:18"
