:080000001C02040000000000D6
:100400000000E0004220AF000A0037004B03090063
:1004100000000000FE3F090000000000FE3F090050
:1004200000000000FE3F0900000000000000E9009D
:10043000F6FF3A00000006000FF82700F0FF270043
:1004400020A0B7000000000081E0A8004427EF00D2
:1004500004032000343A88000E00FC003010200015
:100460003174200082072000A30920008248780010
:100470008348780043E7B7004800DE00217420007D
:1004800062042000730520008248780083487800C9
:10049000804878000068EF0061E2A900E502A90049
:1004A000E4E2A800E522A800E4C2A80060C2A90016
:1004B0006322A9006822EF00741921001413880038
:1004C00061E2A800E522A900E922A8002CA3EF0020
:1004D0002AA3EF006CA3EF006AA3EF0000C0830023
:1004E00010C0B30000C08B0000C083000080FD007E
:1004F00030C0B3000080FD0000C08B0010C083003E
:1005000020C0B30010C08B0010C083000080FD002D
:1005100010C0B3000080FD0010C08B0000C6B30007
:1005200099E3B70010C2B3009AE3B7008426200015
:10053000041D880000C4B30081E3B70010C2B300FB
:1005400082E3B70084262000441C880000C083009A
:1005500000E8B70000C8BF0068E2B70010C0B300F1
:1005600000E8B70081E3A9008063EF004480270022
:10057000241C880034002000541C880081E3A8005B
:1005800099E3A9009863EF0004802700E41C880029
:1005900034002000141D880099E3A800C0C2A900FF
:1005A000C4C2A800401F200000020200000000009A
:1005B000C0C2A900C4C2A900401F2000000202005E
:1005C00000000000CE020400000000000040FE0019
:0200000401F009
:10000000CF0000FFCF0000FF070000FF800000FFCF
:10001000410000FF5F0000FFE70000FFC30000FF9A
:00000001FF
;DSPIC33FJ256GP710A
;CRC=3BC7  CREATED="09-Jul-19 16:46"
