:080000004402040000000000AE
:0400380000020000C2
:100400004200F8003600F8003200F800801F780043
:10041000200020000C000900B01F780081E3A90033
:1004200010C0B30080E3B70084802700241C88003C
:1004300044002000541C880081E3A80099E3A9002F
:1004400010C0B30098E3B70004802700E41C8800C4
:1004500044002000141D880099E3A8008480A900AE
:100460008700A9008480A900A00120000C000900D9
:100470004F1078004F0078003200F9003600F90084
:100480004200F900004006000FF82700F0FF2700A7
:1004900020A0B7000000000081E0A8002CA3EF001E
:1004A0002AA3EF006CA3EF006AA3EF0061E2A900AA
:1004B00060C2A900047820001413880061E2A8003B
:1004C0001400200004C08B003400200014C08B00F6
:1004D0002400200024C08B001400200034C08B00B6
:1004E0009480A80000C2B30099E3B70010C2B30023
:1004F0009AE3B70084262000041D88008163EF0082
:1005000010C2B30082E3B70084262000441C880098
:1005100081E3A90010C0B30080E3B7008480270006
:10052000241C880044002000541C880081E3A8009B
:1005300099E3A90010C0B30098E3B7000480270036
:10054000E41C880044002000141D880099E3A800E2
:100550009480A8005A68EF005AC8BF000000FB0052
:100560006300E10010003C005AC8BF000000FB001F
:10057000000278006220B800048027008402400056
:100580005AC8BF000000FB00000278006220B800DB
:100590008480270004004000900A78005A68EC002C
:1005A000AC02040000000000AA02040000000000E9
:0405B000FFFF370012
:0200000401F009
:10000000CF0000FFCF0000FF070000FF820000FFCD
:10001000C20000FF5F0000FFE00000FF430000FFA0
:00000001FF
;DSPIC33FJ256GP710A
;CRC=B038  CREATED="07-Jan-20 17:08"
