:080000001C02040000000000D6
:100400000000E0004220AF000A0037004B03090063
:1004100000000000FE3F090000000000FE3F090050
:1004200000000000FE3F0900000000000000E9009D
:10043000F6FF3A00000006000FFA2700F0FF270041
:1004400020A0B7000000000081E0A8004427EF00D2
:1004500004032000343A88000E00FC003010200015
:100460003174200082072000A30920008248780010
:100470008348780043E7B7004800DE00217420007D
:1004800062042000730520008248780083487800C9
:10049000804878005A68EF0061E2A900E502A900EF
:1004A000E4E2A800E522A800E4C2A80060C2A90016
:1004B0006322A9006822EF00741921001413880038
:1004C00061E2A800E522A900E922A8002CA3EF0020
:1004D0002AA3EF006CA3EF006AA3EF005C68EF00B3
:1004E0005CC8BF000000FB006300E1000E003C00A0
:1004F0005CC8BF000000FB00000278006220B8006A
:1005000004802700840240005CC8BF000000FB009C
:10051000000278006A20B800800A78005C68EC006D
:10052000700204000000000000C2B30099E3B700AD
:1005300010C2B3009AE3B70084262000041D88008F
:100540008163EF0010C2B30082E3B700842620006D
:10055000441C88000078F8005A08F9005AC8BF0007
:1005600068E2B70010C0B3005AE8B70081E3A90001
:100570008063EF0084802700241C88003400200062
:10058000541C880081E3A80099E3A9009863EF0058
:1005900004802700E41C880034002000141D88001B
:1005A00099E3A800C0C2A900C4C2A800401F20004F
:1005B0000002020000000000C0C2A900C4C2A900DD
:1005C000401F200000020200000000005C68EF00F5
:1005D0005CC8BF000000FB006300E10010003C00AD
:1005E0005CC8BF000000FB00000278006220B80079
:1005F00004802700840240005CC8BF000000FB00AC
:10060000000278006220B8008480270004004000C7
:10061000900A78005C68EC00E8020400000000002A
:0C062000D202040000000000FFFF3700C1
:0200000401F009
:10000000CF0000FFCF0000FF070000FF800000FFCF
:10001000410000FF5F0000FFE00000FF430000FF21
:00000001FF
;DSPIC33FJ256GP710A
;CRC=E8D5  CREATED="09-Jul-19 16:02"
